{
  "contractName": "Claims",
  "abi": [
    {
      "anonymous": false,
      "inputs": [
        {
          "indexed": true,
          "name": "issuer",
          "type": "address"
        },
        {
          "indexed": true,
          "name": "subject",
          "type": "address"
        },
        {
          "indexed": true,
          "name": "key",
          "type": "bytes32"
        },
        {
          "indexed": false,
          "name": "value",
          "type": "bytes32"
        },
        {
          "indexed": false,
          "name": "updatedAt",
          "type": "uint256"
        }
      ],
      "name": "Set",
      "type": "event"
    },
    {
      "anonymous": false,
      "inputs": [
        {
          "indexed": true,
          "name": "issuer",
          "type": "address"
        },
        {
          "indexed": true,
          "name": "subject",
          "type": "address"
        },
        {
          "indexed": true,
          "name": "key",
          "type": "bytes32"
        },
        {
          "indexed": false,
          "name": "updatedAt",
          "type": "uint256"
        }
      ],
      "name": "Unset",
      "type": "event"
    },
    {
      "constant": false,
      "inputs": [
        {
          "name": "subject",
          "type": "address"
        },
        {
          "name": "key",
          "type": "bytes32"
        },
        {
          "name": "value",
          "type": "bytes32"
        }
      ],
      "name": "set",
      "outputs": [],
      "payable": false,
      "stateMutability": "nonpayable",
      "type": "function"
    },
    {
      "constant": true,
      "inputs": [
        {
          "name": "issuer",
          "type": "address"
        },
        {
          "name": "subject",
          "type": "address"
        },
        {
          "name": "key",
          "type": "bytes32"
        }
      ],
      "name": "get",
      "outputs": [
        {
          "name": "",
          "type": "bytes32"
        }
      ],
      "payable": false,
      "stateMutability": "view",
      "type": "function"
    },
    {
      "constant": false,
      "inputs": [
        {
          "name": "issuer",
          "type": "address"
        },
        {
          "name": "subject",
          "type": "address"
        },
        {
          "name": "key",
          "type": "bytes32"
        }
      ],
      "name": "unset",
      "outputs": [],
      "payable": false,
      "stateMutability": "nonpayable",
      "type": "function"
    }
  ],
  "bytecode": "0x608060405234801561001057600080fd5b506105c3806100206000396000f300608060405260043610610057576000357c0100000000000000000000000000000000000000000000000000000000900463ffffffff1680631ed603611461005c5780634de97112146100cd578063bdf285411461015a575b600080fd5b34801561006857600080fd5b506100cb600480360381019080803573ffffffffffffffffffffffffffffffffffffffff169060200190929190803573ffffffffffffffffffffffffffffffffffffffff16906020019092919080356000191690602001909291905050506101b9565b005b3480156100d957600080fd5b5061013c600480360381019080803573ffffffffffffffffffffffffffffffffffffffff169060200190929190803573ffffffffffffffffffffffffffffffffffffffff16906020019092919080356000191690602001909291905050506103db565b60405180826000191660001916815260200191505060405180910390f35b34801561016657600080fd5b506101b7600480360381019080803573ffffffffffffffffffffffffffffffffffffffff1690602001909291908035600019169060200190929190803560001916906020019092919050505061047b565b005b8273ffffffffffffffffffffffffffffffffffffffff163373ffffffffffffffffffffffffffffffffffffffff16148061021e57508173ffffffffffffffffffffffffffffffffffffffff163373ffffffffffffffffffffffffffffffffffffffff16145b151561022957600080fd5b60006001026000808573ffffffffffffffffffffffffffffffffffffffff1673ffffffffffffffffffffffffffffffffffffffff16815260200190815260200160002060008473ffffffffffffffffffffffffffffffffffffffff1673ffffffffffffffffffffffffffffffffffffffff168152602001908152602001600020600083600019166000191681526020019081526020016000205460001916141515156102d457600080fd5b6000808473ffffffffffffffffffffffffffffffffffffffff1673ffffffffffffffffffffffffffffffffffffffff16815260200190815260200160002060008373ffffffffffffffffffffffffffffffffffffffff1673ffffffffffffffffffffffffffffffffffffffff168152602001908152602001600020600082600019166000191681526020019081526020016000206000905580600019168273ffffffffffffffffffffffffffffffffffffffff163373ffffffffffffffffffffffffffffffffffffffff167ffbe6c1eb83ae9832f295d31b9250bfdc8b6d89d4dac56c4d33e92a6b24a3ed87426040518082815260200191505060405180910390a4505050565b60008060008573ffffffffffffffffffffffffffffffffffffffff1673ffffffffffffffffffffffffffffffffffffffff16815260200190815260200160002060008473ffffffffffffffffffffffffffffffffffffffff1673ffffffffffffffffffffffffffffffffffffffff168152602001908152602001600020600083600019166000191681526020019081526020016000205490509392505050565b806000803373ffffffffffffffffffffffffffffffffffffffff1673ffffffffffffffffffffffffffffffffffffffff16815260200190815260200160002060008573ffffffffffffffffffffffffffffffffffffffff1673ffffffffffffffffffffffffffffffffffffffff16815260200190815260200160002060008460001916600019168152602001908152602001600020816000191690555081600019168373ffffffffffffffffffffffffffffffffffffffff163373ffffffffffffffffffffffffffffffffffffffff167fceeccc5e2ccf173b1bb6c22d83c5f568380875ae260d433d0885606b8d4a877084426040518083600019166000191681526020018281526020019250505060405180910390a45050505600a165627a7a72305820d427f7bc333175a0e39b612930299ec6a21a20548d7b0ec0c16b15f83281db6d0029",
  "source": "pragma solidity ^0.4.23;\n\ncontract Claims {\n    mapping(address => mapping(address => mapping(bytes32 => bytes32))) claims;\n\n    event Set(\n        address indexed issuer,\n        address indexed subject,\n        bytes32 indexed key,\n        bytes32 value,\n        uint updatedAt\n    );\n\n    event Unset(\n        address indexed issuer,\n        address indexed subject,\n        bytes32 indexed key,\n        uint updatedAt\n    );\n\n    function set(address subject, bytes32 key, bytes32 value) public {\n        claims[msg.sender][subject][key] = value;\n        emit Set(msg.sender, subject, key, value, now);\n    }\n\n\n    function get(address issuer, address subject, bytes32 key) public constant returns (bytes32) {\n        return claims[issuer][subject][key];\n    }\n\n    function unset(address issuer, address subject, bytes32 key) public {\n        require(msg.sender == issuer || msg.sender == subject);\n        require(claims[issuer][subject][key] != 0);\n\n        delete claims[issuer][subject][key];\n        emit Unset(msg.sender, subject, key, now);\n    }\n}",
  "sourcePath": "/workspace/6c/startup/blocks.city/claims/contracts/Claims.sol",
  "compiler": {
    "name": "solc",
    "version": "0.4.23+commit.124ca40d.Emscripten.clang"
  },
  "schemaVersion": "2.0.0",
  "updatedAt": "2018-05-24T16:01:42.522Z"
}